01000000160014S209000012019080901001                                                                                                                                                                                                                                                                                                                                                                                                                                                              
020000002600120190809014014000000000000001                99201908090100000000000022334489ESCUELA BANCARIA Y COMERCIAL S.C.       EBC840801QW6      0100000000056623857253MARIA OLIVIA GOMEZ FLORES               RFC_DEMO          102                                     ESCUELA BANCARIA Y COMERCIAL S.C.       0000000000000000000102NOMINA                                                                P520190809            2                             NOMINA                        
020000003600120190809014127000000000000001                02201908090100000000000022334489ESCUELA BANCARIA Y COMERCIAL S.C.       EBC840801QW6      4000127180001734799816VICTOR ILICH MENDOZA                    RFC_DEMO          101                                     ESCUELA BANCARIA Y COMERCIAL S.C.       0000000000000000000101NOMINA                                                                CW20190809            3                             NOMINA                        
0900000046009000010000002000000000000000002                                                                                                                                                                                                                                                                                                                                                                                                                                                       
